{
  "abi": [
    {
      "type": "constructor",
      "inputs": [
        {
          "name": "trustedForwarder",
          "type": "address",
          "internalType": "address"
        },
        {
          "name": "_maxPayout",
          "type": "uint256",
          "internalType": "uint256"
        }
      ],
      "stateMutability": "nonpayable"
    },
    {
      "type": "receive",
      "stateMutability": "payable"
    },
    {
      "type": "function",
      "name": "cashOut",
      "inputs": [
        {
          "name": "gameId",
          "type": "uint256",
          "internalType": "uint256"
        }
      ],
      "outputs": [],
      "stateMutability": "nonpayable"
    },
    {
      "type": "function",
      "name": "fundHouse",
      "inputs": [],
      "outputs": [],
      "stateMutability": "payable"
    },
    {
      "type": "function",
      "name": "games",
      "inputs": [
        {
          "name": "",
          "type": "uint256",
          "internalType": "uint256"
        }
      ],
      "outputs": [
        {
          "name": "player",
          "type": "address",
          "internalType": "address"
        },
        {
          "name": "wager",
          "type": "uint128",
          "internalType": "uint128"
        },
        {
          "name": "currentPayout",
          "type": "uint128",
          "internalType": "uint128"
        },
        {
          "name": "startedAt",
          "type": "uint64",
          "internalType": "uint64"
        },
        {
          "name": "roundIndex",
          "type": "uint8",
          "internalType": "uint8"
        },
        {
          "name": "usedMaskLo",
          "type": "uint64",
          "internalType": "uint64"
        },
        {
          "name": "usedMaskHi",
          "type": "uint64",
          "internalType": "uint64"
        },
        {
          "name": "seed",
          "type": "bytes32",
          "internalType": "bytes32"
        },
        {
          "name": "live",
          "type": "bool",
          "internalType": "bool"
        },
        {
          "name": "ended",
          "type": "bool",
          "internalType": "bool"
        },
        {
          "name": "deadline",
          "type": "uint32",
          "internalType": "uint32"
        },
        {
          "name": "lastRank1",
          "type": "uint8",
          "internalType": "uint8"
        },
        {
          "name": "lastRank2",
          "type": "uint8",
          "internalType": "uint8"
        }
      ],
      "stateMutability": "view"
    },
    {
      "type": "function",
      "name": "houseLiquidity",
      "inputs": [],
      "outputs": [
        {
          "name": "",
          "type": "uint256",
          "internalType": "uint256"
        }
      ],
      "stateMutability": "view"
    },
    {
      "type": "function",
      "name": "isTrustedForwarder",
      "inputs": [
        {
          "name": "forwarder",
          "type": "address",
          "internalType": "address"
        }
      ],
      "outputs": [
        {
          "name": "",
          "type": "bool",
          "internalType": "bool"
        }
      ],
      "stateMutability": "view"
    },
    {
      "type": "function",
      "name": "maxPayout",
      "inputs": [],
      "outputs": [
        {
          "name": "",
          "type": "uint256",
          "internalType": "uint256"
        }
      ],
      "stateMutability": "view"
    },
    {
      "type": "function",
      "name": "owner",
      "inputs": [],
      "outputs": [
        {
          "name": "",
          "type": "address",
          "internalType": "address"
        }
      ],
      "stateMutability": "view"
    },
    {
      "type": "function",
      "name": "playRound",
      "inputs": [
        {
          "name": "gameId",
          "type": "uint256",
          "internalType": "uint256"
        },
        {
          "name": "choice",
          "type": "bytes",
          "internalType": "bytes"
        }
      ],
      "outputs": [],
      "stateMutability": "nonpayable"
    },
    {
      "type": "function",
      "name": "renounceOwnership",
      "inputs": [],
      "outputs": [],
      "stateMutability": "nonpayable"
    },
    {
      "type": "function",
      "name": "roundConfigs",
      "inputs": [
        {
          "name": "",
          "type": "uint256",
          "internalType": "uint256"
        }
      ],
      "outputs": [
        {
          "name": "rtype",
          "type": "uint8",
          "internalType": "enum RideTheBus.RoundType"
        },
        {
          "name": "multiplierBps",
          "type": "uint32",
          "internalType": "uint32"
        }
      ],
      "stateMutability": "view"
    },
    {
      "type": "function",
      "name": "setMaxPayout",
      "inputs": [
        {
          "name": "v",
          "type": "uint256",
          "internalType": "uint256"
        }
      ],
      "outputs": [],
      "stateMutability": "nonpayable"
    },
    {
      "type": "function",
      "name": "setRoundConfigs",
      "inputs": [
        {
          "name": "cfgs",
          "type": "tuple[]",
          "internalType": "struct RideTheBus.RoundConfig[]",
          "components": [
            {
              "name": "rtype",
              "type": "uint8",
              "internalType": "enum RideTheBus.RoundType"
            },
            {
              "name": "multiplierBps",
              "type": "uint32",
              "internalType": "uint32"
            }
          ]
        }
      ],
      "outputs": [],
      "stateMutability": "nonpayable"
    },
    {
      "type": "function",
      "name": "startGame",
      "inputs": [
        {
          "name": "wager",
          "type": "uint128",
          "internalType": "uint128"
        },
        {
          "name": "actionDeadlineSec",
          "type": "uint32",
          "internalType": "uint32"
        }
      ],
      "outputs": [
        {
          "name": "gameId",
          "type": "uint256",
          "internalType": "uint256"
        }
      ],
      "stateMutability": "payable"
    },
    {
      "type": "function",
      "name": "transferOwnership",
      "inputs": [
        {
          "name": "newOwner",
          "type": "address",
          "internalType": "address"
        }
      ],
      "outputs": [],
      "stateMutability": "nonpayable"
    },
    {
      "type": "function",
      "name": "trustedForwarder",
      "inputs": [],
      "outputs": [
        {
          "name": "",
          "type": "address",
          "internalType": "address"
        }
      ],
      "stateMutability": "view"
    },
    {
      "type": "function",
      "name": "withdrawHouse",
      "inputs": [
        {
          "name": "amount",
          "type": "uint256",
          "internalType": "uint256"
        }
      ],
      "outputs": [],
      "stateMutability": "nonpayable"
    },
    {
      "type": "event",
      "name": "Busted",
      "inputs": [
        {
          "name": "gameId",
          "type": "uint256",
          "indexed": true,
          "internalType": "uint256"
        }
      ],
      "anonymous": false
    },
    {
      "type": "event",
      "name": "CashedOut",
      "inputs": [
        {
          "name": "gameId",
          "type": "uint256",
          "indexed": true,
          "internalType": "uint256"
        },
        {
          "name": "player",
          "type": "address",
          "indexed": true,
          "internalType": "address"
        },
        {
          "name": "amount",
          "type": "uint256",
          "indexed": false,
          "internalType": "uint256"
        }
      ],
      "anonymous": false
    },
    {
      "type": "event",
      "name": "GameStarted",
      "inputs": [
        {
          "name": "gameId",
          "type": "uint256",
          "indexed": true,
          "internalType": "uint256"
        },
        {
          "name": "player",
          "type": "address",
          "indexed": true,
          "internalType": "address"
        },
        {
          "name": "wager",
          "type": "uint256",
          "indexed": false,
          "internalType": "uint256"
        }
      ],
      "anonymous": false
    },
    {
      "type": "event",
      "name": "HouseFunded",
      "inputs": [
        {
          "name": "amount",
          "type": "uint256",
          "indexed": false,
          "internalType": "uint256"
        }
      ],
      "anonymous": false
    },
    {
      "type": "event",
      "name": "HouseWithdrawn",
      "inputs": [
        {
          "name": "amount",
          "type": "uint256",
          "indexed": false,
          "internalType": "uint256"
        }
      ],
      "anonymous": false
    },
    {
      "type": "event",
      "name": "OwnershipTransferred",
      "inputs": [
        {
          "name": "previousOwner",
          "type": "address",
          "indexed": true,
          "internalType": "address"
        },
        {
          "name": "newOwner",
          "type": "address",
          "indexed": true,
          "internalType": "address"
        }
      ],
      "anonymous": false
    },
    {
      "type": "event",
      "name": "RoundPlayed",
      "inputs": [
        {
          "name": "gameId",
          "type": "uint256",
          "indexed": true,
          "internalType": "uint256"
        },
        {
          "name": "roundIndex",
          "type": "uint8",
          "indexed": false,
          "internalType": "uint8"
        },
        {
          "name": "card",
          "type": "uint8",
          "indexed": false,
          "internalType": "uint8"
        },
        {
          "name": "extra",
          "type": "bytes",
          "indexed": false,
          "internalType": "bytes"
        },
        {
          "name": "win",
          "type": "bool",
          "indexed": false,
          "internalType": "bool"
        },
        {
          "name": "newPayout",
          "type": "uint256",
          "indexed": false,
          "internalType": "uint256"
        }
      ],
      "anonymous": false
    },
    {
      "type": "error",
      "name": "OwnableInvalidOwner",
      "inputs": [
        {
          "name": "owner",
          "type": "address",
          "internalType": "address"
        }
      ]
    },
    {
      "type": "error",
      "name": "OwnableUnauthorizedAccount",
      "inputs": [
        {
          "name": "account",
          "type": "address",
          "internalType": "address"
        }
      ]
    },
    {
      "type": "error",
      "name": "ReentrancyGuardReentrantCall",
      "inputs": []
    }
  ],
  "bytecode": {
    "object": "0x60a06040523461015757604051601f6116e938819003918201601f19168301916001600160401b0383118484101761015b578084926040948552833981010312610157578051906001600160a01b03821682036101575760200151903315610144575f8054336001600160a01b0319821681178355916001600160a01b03909116907f8be0079c531659141344cd1fd0a4f28419497f9722a3daafe3b4186f6b6457e09080a3600180556080526002556100ca6100ba61016f565b5f815261076c602082015261018e565b6100e66100d561016f565b6001815261076c602082015261018e565b6101026100f161016f565b600281526107d0602082015261018e565b61011e61010d61016f565b60038152610fa0602082015261018e565b6040516114d590816102148239608051818181610beb01528181610ed701526114710152f35b631e4fbdf760e01b5f525f60045260245ffd5b5f80fd5b634e487b7160e01b5f52604160045260245ffd5b60408051919082016001600160401b0381118382101761015b57604052565b6004546801000000000000000081101561015b5760018101806004558110156101ff5760045f5260205f20019080519060048210156101eb5760ff64ffffffff006020855493015160081b1692169064ffffffffff191617179055565b634e487b7160e01b5f52602160045260245ffd5b634e487b7160e01b5f52603260045260245ffdfe608080604052600436101561001c575b50361561001a575f80fd5b005b5f3560e01c908163117a5b90146111955750806323218411146110db5780632d04a52914610f7957806336f2318114610f2a57806356b4997f14610f09578063572b6c0514610eac5780635c7b79f514610cf55780636afbb01b14610c71578063715018a614610c1a5780637da0a87714610bd65780638030f66914610bb95780638da5cb5b14610b92578063916a31de1461091b578063e0176de8146108fe578063f2fde38b146108755763fadb421c146100d8575f61000f565b34610871576040366003190112610871576004356024356001600160401b0381116108715736602382011215610871578060040135916001600160401b038311610871576024820191602484369201011161087157610135611370565b805f52600660205260405f209061014a611446565b82546001600160a01b039182169116148015610858575b8015610850575b156108225760048201805460ff811680610813575b610186906112a1565b600284019586549460ff8660401c166004548110156107e85763ffffffff8460101c168061078a575b5070ffffffffffffffff0000000000000000006101ee60ff9260038501546001600160401b038b60881c16916001600160401b038c60481c1691611390565b6001600160401b0360889b939b9492941b9060881b169260481b169078ffffffffffffffffffffffffffffffff0000000000000000001916171796878a551696600d88069360ff600d8a049860401c169161024883611269565b509460405195604087018781106001600160401b0382111761077657604052549560ff87169060048210156107625781815263ffffffff602082019860081c1688525f90606092155f146105475750505015610533576102f86102ea913560f81c60ff8b168015908115610528575b508115918261051f575b8215610503575b50506040805160ff808b166020830152909c16908c0152999182906060820190565b03601f1981018352826112e5565b975b156104555750506001600160801b036103e861032a600161034e94019463ffffffff865460801c9151169061128e565b84546001600160801b03169190049190911660801b6001600160801b031916178255565b5460801c926002548411610423577fcb2c59b42041e2697e770740d94e911bdf18cbfa70077d6263f1a06774b0b67060019588549760ff8960401c16966103ad6040519384938a8552602085015260a0604085015260a0840190611306565b9089606084015260808301520390a266ff00000000000082549160301b169067ff000000000000008160081b169067ffff0000000000001916171790550160ff811161040f5760ff60401b9060401b169060ff60401b19161790555b60018055005b634e487b7160e01b5f52601160045260245ffd5b60405162461bcd60e51b815260206004820152600a60248201526907061796f7574206361760b41b6044820152606490fd5b6104fb995086956001600160801b0399939795507fcb2c59b42041e2697e770740d94e911bdf18cbfa70077d6263f1a06774b0b6709450976001986101006104bd9361ffff19161790556040519384938452602084015260a0604084015260a0830190611306565b5f60608301525f60808301520390a27fea0cfa6cb80e2a0e91700a1abb4a705b05743d7e7969d63a0b8497abe640a8255f80a20154166003546112d8565b600355610409565b600114915081610516575b505f806102c8565b9050155f61050e565b915080916102c1565b60019150145f6102b7565b634e487b7160e01b5f52603260045260245ffd5b80516004811015610762576003036105935750505015610533576040805160ff88811660208301529a909a16908a01819052903560f81c149761058d81606081016102ea565b976102fa565b8091929394959c505160048110156107625760010361064157505050600183106106105715610533573560f81c6001036105ff5760ff8760301c1660ff8516115b6040805160ff878116602083015260308b901c169181019190915290979061058d81606081016102ea565b60ff8760301c1660ff8516106105d4565b60405162461bcd60e51b81526020600482015260096024820152683732b2b210383932bb60b91b6044820152606490fd5b9a93919a92909251600481101561076257600214610661575b50506102fa565b9091506002841061072f5715610533573560f81c60ff8260301c169860ff8360381c16998a81105f146107255760ff80915b169a818916938c85119081610719575b8d861090811561070d575b600181149283610705575b5082156106ec575b50509b6040519460208601526040850152168183015281526106e46080826112e5565b975f8061065a565b159150816106fd575b505f806106c1565b90505f6106f5565b92505f6106b9565b838516871191506106ae565b828416861091506106a3565b9960ff8091610693565b60405162461bcd60e51b815260206004820152600b60248201526a3732b2b2101910383932bb60a91b6044820152606490fd5b634e487b7160e01b5f52602160045260245ffd5b634e487b7160e01b5f52604160045260245ffd5b6001600160401b038816016001600160401b03811161040f576001600160401b031642116107b8575f6101af565b60405162461bcd60e51b8152602060048201526008602482015267646561646c696e6560c01b6044820152606490fd5b606460405162461bcd60e51b8152602060048201526004602482015263646f6e6560e01b6044820152fd5b50600881901c60ff161561017d565b60405162461bcd60e51b815260206004820152600660248201526531b0b63632b960d11b6044820152606490fd5b506001610168565b50610861611446565b6001600160a01b03163014610161565b5f80fd5b34610871576020366003190112610871576004356001600160a01b03811690819003610871576108a361132a565b80156108eb575f80546001600160a01b03198116831782556001600160a01b0316907f8be0079c531659141344cd1fd0a4f28419497f9722a3daafe3b4186f6b6457e09080a3005b631e4fbdf760e01b5f525f60045260245ffd5b34610871575f366003190112610871576020600254604051908152f35b6040366003190112610871576004356001600160801b03811690818103610871576024359163ffffffff8316830361087157610955611370565b8015610b6357803403610b2c57805f6004545b808210610afe5750506002548111159081610ae8575b5015610abd57600554925f19841461040f577f0c82908456d66c43e9de63edd66f9faf875c8f3a12f936e162d675ec42c354446020600181960194859384600555845f5260068352610a1060405f209260018060a01b036109dd611446565b85546001600160a01b03191691161784556001600160801b03881660809190911b6001600160801b031916176001840155565b600282016001600160401b0342166001600160401b03198254161790556001600483019165ffffffff0000835491610a46611446565b604051888101914283524460408301526bffffffffffffffffffffffff199060601b1660608201528a607482015260748152610a836094826112e5565b519020600387015560101b1665ffffffff00ff199190911617179055546040519485526001600160a01b031693a360018055604051908152f35b60405162461bcd60e51b815260206004820152600360248201526206361760ec1b6044820152606490fd5b9050610af6826003546112d8565b10158461097e565b90916103e8610b2360019263ffffffff610b1787611269565b505460081c169061128e565b04920190610968565b60405162461bcd60e51b815260206004820152600f60248201526e696e636f72726563742076616c756560881b6044820152606490fd5b60405162461bcd60e51b8152602060048201526007602482015266077616765723d360cc1b6044820152606490fd5b34610871575f366003190112610871575f546040516001600160a01b039091168152602090f35b34610871575f366003190112610871576020600354604051908152f35b34610871575f366003190112610871576040517f00000000000000000000000000000000000000000000000000000000000000006001600160a01b03168152602090f35b34610871575f36600319011261087157610c3261132a565b5f80546001600160a01b0319811682556001600160a01b03167f8be0079c531659141344cd1fd0a4f28419497f9722a3daafe3b4186f6b6457e08280a3005b5f36600319011261087157610c8461132a565b3415610cc557610c96346003546112d8565b6003557f73deb9e7af4f8bf96cc7c418c08e939dac5b9dcfde84519e70ca1ce08b9974186020604051348152a1005b60405162461bcd60e51b81526020600482015260086024820152676e6f2076616c756560c01b6044820152606490fd5b3461087157602036600319011261087157600435610d11611370565b805f52600660205260405f2090610d26611446565b82546001600160a01b03908116911603610e7a578160046101009301805460ff811680610e6b575b610d57906112a1565b6001600160801b0360018401928354908160801c97889461ffff1916179055168082115f14610e4c5750506001600160801b03610d9691541684611281565b60035490818111610e1c57610daa91611281565b6003555b5f8080808660018060a01b03865416828215610e13575bf115610e0857546040519283526001600160a01b0316917f5f040b58ca1b9d6d03d1b59e50b83373851a6b99eb754784360306f96ace926390602090a360018055005b6040513d5f823e3d90fd5b506108fc610dc5565b60405162461bcd60e51b81526020600482015260086024820152671a5b1b1a5c5d5a5960c21b6044820152606490fd5b610e63925090610e5b91611281565b6003546112d8565b600355610dae565b50600881901c60ff1615610d4e565b60405162461bcd60e51b815260206004820152600a6024820152693737ba10383630bcb2b960b11b6044820152606490fd5b34610871576020366003190112610871576004356001600160a01b03811690819003610871576040517f00000000000000000000000000000000000000000000000000000000000000006001600160a01b03169091148152602090f35b3461087157602036600319011261087157610f2261132a565b600435600255005b346108715760203660031901126108715760043560045481101561087157610f5190611269565b505460405160ff821660048110156107625760409263ffffffff91835260081c166020820152f35b34610871576020366003190112610871576004356001600160401b0381116108715736602382011215610871578060040135906001600160401b038211610871573660248360061b8301011161087157610fd161132a565b6004545f6004558061107b575b505f5b8281101561001a578060061b82019060045468010000000000000000811015610776578060016110149201600455611269565b611068576024830135600481101561087157604460ff83549216948560ff19841617845501359363ffffffff851685036108715764ffffffff0060019560081b169164ffffffffff19161717905501610fe1565b634e487b7160e01b5f525f60045260245ffd5b60045f527f8a35acfbc15ff81a39ae7d344fd709f28e8600b4aa8c65c6b64bfe7fe36bd19b017f8a35acfbc15ff81a39ae7d344fd709f28e8600b4aa8c65c6b64bfe7fe36bd19b5b8181106110d05750610fde565b5f81556001016110c3565b34610871576020366003190112610871576004356110f761132a565b600354808211611161578161110b91611281565b6003555f8080808460018060a01b03825416828215611158575bf115610e085760207fd945ce854e54b4e7a87ddd5727e4dfd5c8e05df22e862ef99562e994c99158af91604051908152a1005b506108fc611125565b60405162461bcd60e51b815260206004820152600c60248201526b1a5b9cdd59999a58da595b9d60a21b6044820152606490fd5b34610871576020366003190112610871576101a0906004355f52600660205260ff60405f2060018060a01b03815416906001600160401b036001820154600283015490600460038501549401549487526001600160801b038116602088015260801c60408701528181166060870152848160401c166080870152818160481c1660a087015260881c1660c085015260e08401528181161515610100840152818160081c16151561012084015263ffffffff8160101c16610140840152818160301c1661016084015260381c16610180820152f35b6004548110156105335760045f5260205f2001905f90565b9190820391821161040f57565b8181029291811591840414171561040f57565b156112a857565b60405162461bcd60e51b81526020600482015260086024820152676e6f74206c69766560c01b6044820152606490fd5b9190820180921161040f57565b90601f801991011681019081106001600160401b0382111761077657604052565b805180835260209291819084018484015e5f828201840152601f01601f1916010190565b5f546001600160a01b0390811690611340611446565b160361134857565b611350611446565b63118cdaa760e01b5f9081526001600160a01b0391909116600452602490fd5b600260015414611381576002600155565b633ee5aeb560e01b5f5260045ffd5b9390935f5b60ff603460405160208101908582528360f81b8a60f81b1660408201528360f81b8560f81b166041820152602281526113cf6042826112e5565b51902006166020811015611416576001811b6001600160401b0380828816161515911686179187915b1561140b5750505060010160ff16611395565b975090955093505050565b601f19810160ff811161040f5760ff600191161b906001600160401b0380838916161515921687179086926113f8565b60143610158061146d575b15611469576013193601368111610871573560601c90565b3390565b50337f00000000000000000000000000000000000000000000000000000000000000006001600160a01b03161461145156fea2646970667358221220d74f6939c962eb14eb2a34b39bb04f6d3d0172d9696b13f9f4cdaecfbb3cde3064736f6c634300081e0033",
    "linkReferences": {}
  },
  "methodIdentifiers": {
    "cashOut(uint256)": "5c7b79f5",
    "fundHouse()": "6afbb01b",
    "games(uint256)": "117a5b90",
    "houseLiquidity()": "8030f669",
    "isTrustedForwarder(address)": "572b6c05",
    "maxPayout()": "e0176de8",
    "owner()": "8da5cb5b",
    "playRound(uint256,bytes)": "fadb421c",
    "renounceOwnership()": "715018a6",
    "roundConfigs(uint256)": "36f23181",
    "setMaxPayout(uint256)": "56b4997f",
    "setRoundConfigs((uint8,uint32)[])": "2d04a529",
    "startGame(uint128,uint32)": "916a31de",
    "transferOwnership(address)": "f2fde38b",
    "trustedForwarder()": "7da0a877",
    "withdrawHouse(uint256)": "23218411"
  },
  "id": 0
}